{
  "contractName": "Auction",
  "abi": [
    {
      "constant": true,
      "inputs": [],
      "name": "seller",
      "outputs": [
        {
          "name": "",
          "type": "address"
        }
      ],
      "payable": false,
      "stateMutability": "view",
      "type": "function"
    },
    {
      "constant": true,
      "inputs": [
        {
          "name": "",
          "type": "uint256"
        }
      ],
      "name": "bids",
      "outputs": [
        {
          "name": "",
          "type": "uint256"
        }
      ],
      "payable": false,
      "stateMutability": "view",
      "type": "function"
    },
    {
      "constant": true,
      "inputs": [
        {
          "name": "",
          "type": "uint256"
        }
      ],
      "name": "bidders",
      "outputs": [
        {
          "name": "",
          "type": "address"
        }
      ],
      "payable": false,
      "stateMutability": "view",
      "type": "function"
    },
    {
      "constant": false,
      "inputs": [],
      "name": "auction",
      "outputs": [],
      "payable": false,
      "stateMutability": "nonpayable",
      "type": "function"
    },
    {
      "constant": false,
      "inputs": [],
      "name": "submitBid",
      "outputs": [],
      "payable": true,
      "stateMutability": "payable",
      "type": "function"
    },
    {
      "constant": false,
      "inputs": [],
      "name": "determineWinner",
      "outputs": [],
      "payable": false,
      "stateMutability": "nonpayable",
      "type": "function"
    },
    {
      "constant": true,
      "inputs": [],
      "name": "getHighestBidder",
      "outputs": [
        {
          "name": "",
          "type": "address"
        }
      ],
      "payable": false,
      "stateMutability": "view",
      "type": "function"
    },
    {
      "constant": true,
      "inputs": [],
      "name": "getBidders",
      "outputs": [
        {
          "name": "",
          "type": "address[]"
        }
      ],
      "payable": false,
      "stateMutability": "view",
      "type": "function"
    }
  ],
  "bytecode": "0x6060604052341561000f57600080fd5b6107a88061001e6000396000f30060606040526004361061008d576000357c0100000000000000000000000000000000000000000000000000000000900463ffffffff1680623495a41461009257806308551a53146100e757806333b16d931461013c5780634423c5f1146101515780637d9f6db514610188578063c334b6b21461019d578063cb6632ef146101a7578063cff29dfd14610211575b600080fd5b341561009d57600080fd5b6100a5610274565b604051808273ffffffffffffffffffffffffffffffffffffffff1673ffffffffffffffffffffffffffffffffffffffff16815260200191505060405180910390f35b34156100f257600080fd5b6100fa61029e565b604051808273ffffffffffffffffffffffffffffffffffffffff1673ffffffffffffffffffffffffffffffffffffffff16815260200191505060405180910390f35b341561014757600080fd5b61014f6102c4565b005b341561015c57600080fd5b6101726004808035906020019091905050610441565b6040518082815260200191505060405180910390f35b341561019357600080fd5b61019b610465565b005b6101a56104a8565b005b34156101b257600080fd5b6101ba61054b565b6040518080602001828103825283818151815260200191508051906020019060200280838360005b838110156101fd5780820151818401526020810190506101e2565b505050509050019250505060405180910390f35b341561021c57600080fd5b61023260048080359060200190919050506105df565b604051808273ffffffffffffffffffffffffffffffffffffffff1673ffffffffffffffffffffffffffffffffffffffff16815260200191505060405180910390f35b6000600360009054906101000a900473ffffffffffffffffffffffffffffffffffffffff16905090565b600260009054906101000a900473ffffffffffffffffffffffffffffffffffffffff1681565b60008060009150600090505b60018054905081101561032a57816001828154811015156102ed57fe5b906000526020600020900154111561031d5760018181548110151561030e57fe5b90600052602060002090015491505b80806001019150506102d0565b60008181548110151561033957fe5b906000526020600020900160009054906101000a900473ffffffffffffffffffffffffffffffffffffffff16600360006101000a81548173ffffffffffffffffffffffffffffffffffffffff021916908373ffffffffffffffffffffffffffffffffffffffff160217905550600360009054906101000a900473ffffffffffffffffffffffffffffffffffffffff1673ffffffffffffffffffffffffffffffffffffffff166108fc839081150290604051600060405180830381858888f19350505050151561040757600080fd5b60006040518059106104165750595b90808252806020026020018201604052506000908051906020019061043c92919061061e565b505050565b60018181548110151561045057fe5b90600052602060002090016000915090505481565b33600260006101000a81548173ffffffffffffffffffffffffffffffffffffffff021916908373ffffffffffffffffffffffffffffffffffffffff160217905550565b662386f26fc10000341115156104bd57600080fd5b600080548060010182816104d191906106a8565b9160005260206000209001600033909190916101000a81548173ffffffffffffffffffffffffffffffffffffffff021916908373ffffffffffffffffffffffffffffffffffffffff160217905550506001805480600101828161053491906106d4565b916000526020600020900160003490919091505550565b610553610700565b60008054806020026020016040519081016040528092919081815260200182805480156105d557602002820191906000526020600020905b8160009054906101000a900473ffffffffffffffffffffffffffffffffffffffff1673ffffffffffffffffffffffffffffffffffffffff168152602001906001019080831161058b575b5050505050905090565b6000818154811015156105ee57fe5b90600052602060002090016000915054906101000a900473ffffffffffffffffffffffffffffffffffffffff1681565b828054828255906000526020600020908101928215610697579160200282015b828111156106965782518260006101000a81548173ffffffffffffffffffffffffffffffffffffffff021916908373ffffffffffffffffffffffffffffffffffffffff1602179055509160200191906001019061063e565b5b5090506106a49190610714565b5090565b8154818355818115116106cf578183600052602060002091820191016106ce9190610757565b5b505050565b8154818355818115116106fb578183600052602060002091820191016106fa9190610757565b5b505050565b602060405190810160405280600081525090565b61075491905b8082111561075057600081816101000a81549073ffffffffffffffffffffffffffffffffffffffff02191690555060010161071a565b5090565b90565b61077991905b8082111561077557600081600090555060010161075d565b5090565b905600a165627a7a723058201df9886dda5ee78ab53cb1a6c6e098e30c78181ae21cd6bd83837df4616ba45b0029",
  "source": "pragma solidity  ^0.4.19;\n\ncontract Auction {\n  //  Represents a set of people entering the auction to bid on a product.\n  address[] public bidders;\n  \n  // Represents the bids received by the seller.\n  uint256[] public bids;\n  \n  // Represents an address auctioning a product.\n  address public seller;\n  \n  // The highest bidder for the auction.\n  address highestBidder;\n\n  function auction() public {\n      seller = msg.sender;\n  }\n\n  function submitBid() public payable {\n        require(msg.value > 0.01 ether);\n        bidders.push(msg.sender);\n        bids.push(msg.value);\n  }\n    \n\n  function determineWinner() public {\n    uint256 highestBid = 0;\n    uint256 i;\n\n    for (i = 0; i < bids.length; i++) {\n        if (bids[i] > highestBid) {\n            highestBid = bids[i];\n    }\n  }\n   highestBidder = bidders[i];\n   highestBidder.transfer(highestBid);\n   \n   // Reset: for a new auction round.\n   bidders = new address[](0);\n }\n\n  function getHighestBidder() view public returns (address) {\n    return highestBidder;\n  }\n  \n  function getBidders() view public returns (address[] memory){\n      return bidders;\n  }\n}\n",
  "sourcePath": "/Users/jenilthakker/Desktop/Coding/auction-dapp/truffle/contracts/auction.sol",
  "compiler": {
    "name": "solc",
    "version": "0.4.19+commit.c4cbbb05.Emscripten.clang"
  },
  "schemaVersion": "3.0.2",
  "updatedAt": "2019-07-18T20:24:05.599Z",
  "devdoc": {
    "methods": {}
  },
  "userdoc": {
    "methods": {}
  }
}