{
  "contractName": "Auction",
  "abi": [
    {
      "constant": true,
      "inputs": [],
      "name": "seller",
      "outputs": [
        {
          "name": "",
          "type": "address"
        }
      ],
      "payable": false,
      "stateMutability": "view",
      "type": "function",
      "signature": "0x08551a53"
    },
    {
      "constant": true,
      "inputs": [
        {
          "name": "",
          "type": "uint256"
        }
      ],
      "name": "bidders",
      "outputs": [
        {
          "name": "",
          "type": "address"
        }
      ],
      "payable": false,
      "stateMutability": "view",
      "type": "function",
      "signature": "0xcff29dfd"
    },
    {
      "constant": false,
      "inputs": [],
      "name": "auction",
      "outputs": [],
      "payable": false,
      "stateMutability": "nonpayable",
      "type": "function",
      "signature": "0x7d9f6db5"
    },
    {
      "constant": false,
      "inputs": [],
      "name": "submitBid",
      "outputs": [],
      "payable": true,
      "stateMutability": "payable",
      "type": "function",
      "signature": "0xc334b6b2"
    },
    {
      "constant": false,
      "inputs": [],
      "name": "determineWinner",
      "outputs": [],
      "payable": false,
      "stateMutability": "nonpayable",
      "type": "function",
      "signature": "0x33b16d93"
    },
    {
      "constant": true,
      "inputs": [],
      "name": "getHighestBidder",
      "outputs": [
        {
          "name": "",
          "type": "address"
        }
      ],
      "payable": false,
      "stateMutability": "view",
      "type": "function",
      "signature": "0x003495a4"
    }
  ],
  "bytecode": "0x608060405234801561001057600080fd5b50610578806100206000396000f3fe608060405260043610610077576000357c0100000000000000000000000000000000000000000000000000000000900463ffffffff1680623495a41461007c57806308551a53146100d357806333b16d931461012a5780637d9f6db514610141578063c334b6b214610158578063cff29dfd14610162575b600080fd5b34801561008857600080fd5b506100916101dd565b604051808273ffffffffffffffffffffffffffffffffffffffff1673ffffffffffffffffffffffffffffffffffffffff16815260200191505060405180910390f35b3480156100df57600080fd5b506100e8610207565b604051808273ffffffffffffffffffffffffffffffffffffffff1673ffffffffffffffffffffffffffffffffffffffff16815260200191505060405180910390f35b34801561013657600080fd5b5061013f61022d565b005b34801561014d57600080fd5b50610156610355565b005b610160610398565b005b34801561016e57600080fd5b5061019b6004803603602081101561018557600080fd5b8101908080359060200190929190505050610441565b604051808273ffffffffffffffffffffffffffffffffffffffff1673ffffffffffffffffffffffffffffffffffffffff16815260200191505060405180910390f35b6000600360009054906101000a900473ffffffffffffffffffffffffffffffffffffffff16905090565b600260009054906101000a900473ffffffffffffffffffffffffffffffffffffffff1681565b600080905060008090505b600180549050811015610290578160018281548110151561025557fe5b906000526020600020015411156102835760018181548110151561027557fe5b906000526020600020015491505b8080600101915050610238565b60008181548110151561029f57fe5b9060005260206000200160009054906101000a900473ffffffffffffffffffffffffffffffffffffffff16600360006101000a81548173ffffffffffffffffffffffffffffffffffffffff021916908373ffffffffffffffffffffffffffffffffffffffff160217905550600060405190808252806020026020018201604052801561033a5781602001602082028038833980820191505090505b506000908051906020019061035092919061047f565b505050565b33600260006101000a81548173ffffffffffffffffffffffffffffffffffffffff021916908373ffffffffffffffffffffffffffffffffffffffff160217905550565b662386f26fc10000341115156103ad57600080fd5b60003390806001815401808255809150509060018203906000526020600020016000909192909190916101000a81548173ffffffffffffffffffffffffffffffffffffffff021916908373ffffffffffffffffffffffffffffffffffffffff160217905550506001349080600181540180825580915050906001820390600052602060002001600090919290919091505550565b60008181548110151561045057fe5b906000526020600020016000915054906101000a900473ffffffffffffffffffffffffffffffffffffffff1681565b8280548282559060005260206000209081019282156104f8579160200282015b828111156104f75782518260006101000a81548173ffffffffffffffffffffffffffffffffffffffff021916908373ffffffffffffffffffffffffffffffffffffffff1602179055509160200191906001019061049f565b5b5090506105059190610509565b5090565b61054991905b8082111561054557600081816101000a81549073ffffffffffffffffffffffffffffffffffffffff02191690555060010161050f565b5090565b9056fea165627a7a723058200a7d2029a35b3b8d1382e5c4f581244b6d4396ae4be488cf362b9d2a0c4914530029",
  "source": "pragma solidity >= 0.5.0;\n\ncontract Auction {\n  //  Represents a set of people entering the auction to bid on a product.\n  address[] public bidders;\n  \n  // Represents the bids received by the seller.\n  uint256[] bids;\n  \n  // Represents an address auctioning a product.\n  address public seller;\n  \n  address highestBidder;\n\n  function auction() public {\n      seller = msg.sender;\n  }\n\n  function submitBid() public payable {\n        require(msg.value > 0.01 ether);\n        bidders.push(msg.sender);\n        bids.push(msg.value);\n  }\n    \n\n  function determineWinner() public {\n    uint highestBid = 0;\n    uint i;\n\n    for (i = 0; i < bids.length; i++) {\n        if (bids[i] > highestBid) {\n            highestBid = bids[i];\n    }\n  }\n   highestBidder = bidders[i];\n   bidders = new address[](0);\n }\n\n  function getHighestBidder() view public returns (address) {\n    return highestBidder;\n  }\n}\n",
  "sourcePath": "/Users/jenilthakker/Desktop/Coding/auction-dapp/truffle/contracts/auction.sol",
  "compiler": {
    "name": "solc",
    "version": "0.5.0+commit.1d4f565a.Emscripten.clang"
  },
  "schemaVersion": "3.0.2",
  "updatedAt": "2019-07-16T06:00:12.333Z",
  "devdoc": {
    "methods": {}
  },
  "userdoc": {
    "methods": {}
  }
}