{
  "contractName": "Auction",
  "abi": [
    {
      "constant": false,
      "inputs": [
        {
          "name": "name",
          "type": "string"
        },
        {
          "name": "bid",
          "type": "uint256"
        }
      ],
      "name": "submitBid",
      "outputs": [],
      "payable": false,
      "stateMutability": "nonpayable",
      "type": "function",
      "signature": "0xbe58196b"
    },
    {
      "constant": true,
      "inputs": [],
      "name": "getHighestBidder",
      "outputs": [
        {
          "name": "",
          "type": "string"
        }
      ],
      "payable": false,
      "stateMutability": "view",
      "type": "function",
      "signature": "0x003495a4"
    },
    {
      "constant": true,
      "inputs": [],
      "name": "getTopBid",
      "outputs": [
        {
          "name": "",
          "type": "uint256"
        }
      ],
      "payable": false,
      "stateMutability": "view",
      "type": "function",
      "signature": "0xe14ae9e0"
    }
  ],
  "bytecode": "0x60806040526001600260006101000a81548160ff02191690831515021790555034801561002b57600080fd5b506105428061003b6000396000f3fe608060405234801561001057600080fd5b50600436106100405760003560e01c80623495a414610045578063be58196b146100c8578063e14ae9e01461018d575b600080fd5b61004d6101ab565b6040518080602001828103825283818151815260200191508051906020019080838360005b8381101561008d578082015181840152602081019050610072565b50505050905090810190601f1680156100ba5780820380516001836020036101000a031916815260200191505b509250505060405180910390f35b61018b600480360360408110156100de57600080fd5b81019080803590602001906401000000008111156100fb57600080fd5b82018360208201111561010d57600080fd5b8035906020019184600183028401116401000000008311171561012f57600080fd5b91908080601f016020809104026020016040519081016040528093929190818152602001838380828437600081840152601f19601f8201169050808301925050505050505091929192908035906020019092919050505061024d565b005b6101956103f8565b6040518082815260200191505060405180910390f35b606060018054600181600116156101000203166002900480601f0160208091040260200160405190810160405280929190818152602001828054600181600116156101000203166002900480156102435780601f1061021857610100808354040283529160200191610243565b820191906000526020600020905b81548152906001019060200180831161022657829003601f168201915b5050505050905090565b806000836040518082805190602001908083835b602083106102845780518252602082019150602081019050602083039250610261565b6001836020036101000a038019825116818451168082178552505050505050905001915050908152602001604051809103902054106102c257600080fd5b600260009054906101000a900460ff168061034e57506000600160405180828054600181600116156101000203166002900480156103375780601f10610315576101008083540402835291820191610337565b820191906000526020600020905b815481529060010190602001808311610323575b505091505090815260200160405180910390205481115b15610386578160019080519060200190610369929190610471565b506000600260006101000a81548160ff0219169083151502179055505b806000836040518082805190602001908083835b602083106103bd578051825260208201915060208101905060208303925061039a565b6001836020036101000a0380198251168184511680821785525050505050509050019150509081526020016040518091039020819055505050565b600080600160405180828054600181600116156101000203166002900480156104585780601f10610436576101008083540402835291820191610458565b820191906000526020600020905b815481529060010190602001808311610444575b5050915050908152602001604051809103902054905090565b828054600181600116156101000203166002900490600052602060002090601f016020900481019282601f106104b257805160ff19168380011785556104e0565b828001600101855582156104e0579182015b828111156104df5782518255916020019190600101906104c4565b5b5090506104ed91906104f1565b5090565b61051391905b8082111561050f5760008160009055506001016104f7565b5090565b9056fea165627a7a72305820acda0ca4a07c3810459b8bd11790c3df74f1ead9605379cec1193521b91ecf9f0029",
  "source": "pragma solidity >= 0.5.0;\n\ncontract Auction {\n  mapping(string => uint256) bids;\n\n  string highestBidder;\n  bool firstBid = true;\n\n  function submitBid(string memory name, uint256 bid) public {\n    require(bids[name] < bid);\n\n    if (firstBid || bid > bids[highestBidder]) {\n      highestBidder = name;\n      firstBid = false;\n    }\n    bids[name] = bid;\n  }\n\n  function getHighestBidder() view public returns (string memory) {\n    return highestBidder;\n  }\n\n  function getTopBid() view public returns (uint256) {\n    return bids[highestBidder];\n  }\n}\n",
  "sourcePath": "/Users/jenilthakker/Desktop/Coding/auction-dapp/truffle/contracts/auction.sol",
  "compiler": {
    "name": "solc",
    "version": "0.5.8+commit.23d335f2.Emscripten.clang"
  },
  "schemaVersion": "3.0.2",
  "updatedAt": "2019-07-06T05:48:03.868Z",
  "devdoc": {
    "methods": {}
  },
  "userdoc": {
    "methods": {}
  }
}