{
  "contractName": "Auction",
  "abi": [
    {
      "constant": true,
      "inputs": [],
      "name": "seller",
      "outputs": [
        {
          "name": "",
          "type": "address"
        }
      ],
      "payable": false,
      "stateMutability": "view",
      "type": "function",
      "signature": "0x08551a53"
    },
    {
      "constant": true,
      "inputs": [],
      "name": "latestBidder",
      "outputs": [
        {
          "name": "",
          "type": "address"
        }
      ],
      "payable": false,
      "stateMutability": "view",
      "type": "function",
      "signature": "0x67a884e5"
    },
    {
      "constant": false,
      "inputs": [
        {
          "name": "bid",
          "type": "uint256"
        }
      ],
      "name": "auction",
      "outputs": [],
      "payable": false,
      "stateMutability": "nonpayable",
      "type": "function",
      "signature": "0x1200617f"
    },
    {
      "constant": false,
      "inputs": [
        {
          "name": "name",
          "type": "address"
        },
        {
          "name": "bid",
          "type": "uint256"
        }
      ],
      "name": "submitBid",
      "outputs": [],
      "payable": false,
      "stateMutability": "nonpayable",
      "type": "function",
      "signature": "0xf2a4f2d6"
    },
    {
      "constant": true,
      "inputs": [],
      "name": "getHighestBidder",
      "outputs": [
        {
          "name": "",
          "type": "address"
        }
      ],
      "payable": false,
      "stateMutability": "view",
      "type": "function",
      "signature": "0x003495a4"
    },
    {
      "constant": true,
      "inputs": [],
      "name": "getTopBid",
      "outputs": [
        {
          "name": "",
          "type": "uint256"
        }
      ],
      "payable": false,
      "stateMutability": "view",
      "type": "function",
      "signature": "0xe14ae9e0"
    }
  ],
  "bytecode": "0x60806040526001600460146101000a81548160ff02191690831515021790555034801561002b57600080fd5b506105108061003b6000396000f3fe608060405260043610610077576000357c0100000000000000000000000000000000000000000000000000000000900463ffffffff1680623495a41461007c57806308551a53146100d35780631200617f1461012a57806367a884e514610165578063e14ae9e0146101bc578063f2a4f2d6146101e7575b600080fd5b34801561008857600080fd5b50610091610242565b604051808273ffffffffffffffffffffffffffffffffffffffff1673ffffffffffffffffffffffffffffffffffffffff16815260200191505060405180910390f35b3480156100df57600080fd5b506100e861026c565b604051808273ffffffffffffffffffffffffffffffffffffffff1673ffffffffffffffffffffffffffffffffffffffff16815260200191505060405180910390f35b34801561013657600080fd5b506101636004803603602081101561014d57600080fd5b8101908080359060200190929190505050610292565b005b34801561017157600080fd5b5061017a6102e7565b604051808273ffffffffffffffffffffffffffffffffffffffff1673ffffffffffffffffffffffffffffffffffffffff16815260200191505060405180910390f35b3480156101c857600080fd5b506101d161030d565b6040518082815260200191505060405180910390f35b3480156101f357600080fd5b506102406004803603604081101561020a57600080fd5b81019080803573ffffffffffffffffffffffffffffffffffffffff16906020019092919080359060200190929190505050610375565b005b6000600460009054906101000a900473ffffffffffffffffffffffffffffffffffffffff16905090565b600360009054906101000a900473ffffffffffffffffffffffffffffffffffffffff1681565b33600360006101000a81548173ffffffffffffffffffffffffffffffffffffffff021916908373ffffffffffffffffffffffffffffffffffffffff160217905550670de0b6b3a7640000810260028190555050565b600160009054906101000a900473ffffffffffffffffffffffffffffffffffffffff1681565b6000806000600460009054906101000a900473ffffffffffffffffffffffffffffffffffffffff1673ffffffffffffffffffffffffffffffffffffffff1673ffffffffffffffffffffffffffffffffffffffff16815260200190815260200160002054905090565b806000808473ffffffffffffffffffffffffffffffffffffffff1673ffffffffffffffffffffffffffffffffffffffff168152602001908152602001600020541015156103c157600080fd5b600460149054906101000a900460ff168061043b5750600080600460009054906101000a900473ffffffffffffffffffffffffffffffffffffffff1673ffffffffffffffffffffffffffffffffffffffff1673ffffffffffffffffffffffffffffffffffffffff1681526020019081526020016000205481115b1561049d5781600460006101000a81548173ffffffffffffffffffffffffffffffffffffffff021916908373ffffffffffffffffffffffffffffffffffffffff1602179055506000600460146101000a81548160ff0219169083151502179055505b806000808473ffffffffffffffffffffffffffffffffffffffff1673ffffffffffffffffffffffffffffffffffffffff16815260200190815260200160002081905550505056fea165627a7a72305820a0d84b338558917a9c32984291ddc2b5ee968f282ef9787f8ed53502caf9c5240029",
  "source": "pragma solidity >= 0.5.0;\n\ncontract Auction {\n  mapping(address => uint256) bids;\n  address public latestBidder;\n  uint256 latestBid;\n  address public seller;\n\n  address highestBidder;\n  bool firstBid = true;\n  \n  function auction(uint256 bid) public {\n      seller = msg.sender;\n      latestBid = bid * 1 ether;\n  }\n\n  function submitBid(address name, uint256 bid) public {\n    require(bids[name] < bid);\n\n    if (firstBid || bid > bids[highestBidder]) {\n      highestBidder = name;\n      firstBid = false;\n    }\n    bids[name] = bid;\n  }\n\n  function getHighestBidder() view public returns (address) {\n    return highestBidder;\n  }\n\n  function getTopBid() view public returns (uint256) {\n    return bids[highestBidder];\n  }\n}\n",
  "sourcePath": "/Users/jenilthakker/Desktop/Coding/auction-dapp/truffle/contracts/auction.sol",
  "compiler": {
    "name": "solc",
    "version": "0.5.0+commit.1d4f565a.Emscripten.clang"
  },
  "schemaVersion": "3.0.2",
  "updatedAt": "2019-07-12T20:09:07.186Z",
  "devdoc": {
    "methods": {}
  },
  "userdoc": {
    "methods": {}
  }
}