{
  "contractName": "Auction",
  "abi": [
    {
      "constant": true,
      "inputs": [],
      "name": "seller",
      "outputs": [
        {
          "name": "",
          "type": "address"
        }
      ],
      "payable": false,
      "stateMutability": "view",
      "type": "function"
    },
    {
      "constant": true,
      "inputs": [
        {
          "name": "",
          "type": "uint256"
        }
      ],
      "name": "bids",
      "outputs": [
        {
          "name": "",
          "type": "uint256"
        }
      ],
      "payable": false,
      "stateMutability": "view",
      "type": "function"
    },
    {
      "constant": true,
      "inputs": [
        {
          "name": "",
          "type": "uint256"
        }
      ],
      "name": "bidders",
      "outputs": [
        {
          "name": "",
          "type": "address"
        }
      ],
      "payable": false,
      "stateMutability": "view",
      "type": "function"
    },
    {
      "constant": false,
      "inputs": [],
      "name": "auction",
      "outputs": [],
      "payable": false,
      "stateMutability": "nonpayable",
      "type": "function"
    },
    {
      "constant": false,
      "inputs": [],
      "name": "submitBid",
      "outputs": [],
      "payable": true,
      "stateMutability": "payable",
      "type": "function"
    },
    {
      "constant": false,
      "inputs": [],
      "name": "determineWinner",
      "outputs": [],
      "payable": false,
      "stateMutability": "nonpayable",
      "type": "function"
    },
    {
      "constant": true,
      "inputs": [],
      "name": "getHighestBidder",
      "outputs": [
        {
          "name": "",
          "type": "address"
        }
      ],
      "payable": false,
      "stateMutability": "view",
      "type": "function"
    },
    {
      "constant": true,
      "inputs": [],
      "name": "getBidders",
      "outputs": [
        {
          "name": "",
          "type": "address[]"
        }
      ],
      "payable": false,
      "stateMutability": "view",
      "type": "function"
    },
    {
      "constant": true,
      "inputs": [],
      "name": "getBids",
      "outputs": [
        {
          "name": "",
          "type": "uint256[]"
        }
      ],
      "payable": false,
      "stateMutability": "view",
      "type": "function"
    }
  ],
  "bytecode": "0x6060604052341561000f57600080fd5b6108188061001e6000396000f300606060405260043610610098576000357c0100000000000000000000000000000000000000000000000000000000900463ffffffff1680623495a41461009d57806308551a53146100f257806333b16d93146101475780634423c5f11461015c5780637d9f6db514610193578063b81c78ec146101a8578063c334b6b214610212578063cb6632ef1461021c578063cff29dfd14610286575b600080fd5b34156100a857600080fd5b6100b06102e9565b604051808273ffffffffffffffffffffffffffffffffffffffff1673ffffffffffffffffffffffffffffffffffffffff16815260200191505060405180910390f35b34156100fd57600080fd5b610105610313565b604051808273ffffffffffffffffffffffffffffffffffffffff1673ffffffffffffffffffffffffffffffffffffffff16815260200191505060405180910390f35b341561015257600080fd5b61015a610339565b005b341561016757600080fd5b61017d6004808035906020019091905050610413565b6040518082815260200191505060405180910390f35b341561019e57600080fd5b6101a6610437565b005b34156101b357600080fd5b6101bb61047a565b6040518080602001828103825283818151815260200191508051906020019060200280838360005b838110156101fe5780820151818401526020810190506101e3565b505050509050019250505060405180910390f35b61021a6104d8565b005b341561022757600080fd5b61022f6105a7565b6040518080602001828103825283818151815260200191508051906020019060200280838360005b83811015610272578082015181840152602081019050610257565b505050509050019250505060405180910390f35b341561029157600080fd5b6102a7600480803590602001909190505061063b565b604051808273ffffffffffffffffffffffffffffffffffffffff1673ffffffffffffffffffffffffffffffffffffffff16815260200191505060405180910390f35b6000600360009054906101000a900473ffffffffffffffffffffffffffffffffffffffff16905090565b600260009054906101000a900473ffffffffffffffffffffffffffffffffffffffff1681565b600060016000805490500381548110151561035057fe5b906000526020600020900160009054906101000a900473ffffffffffffffffffffffffffffffffffffffff1673ffffffffffffffffffffffffffffffffffffffff166108fc6001808080549050038154811015156103aa57fe5b9060005260206000209001549081150290604051600060405180830381858888f1935050505015156103db57600080fd5b60006040518059106103ea5750595b90808252806020026020018201604052506000908051906020019061041092919061067a565b50565b60018181548110151561042257fe5b90600052602060002090016000915090505481565b33600260006101000a81548173ffffffffffffffffffffffffffffffffffffffff021916908373ffffffffffffffffffffffffffffffffffffffff160217905550565b610482610704565b60018054806020026020016040519081016040528092919081815260200182805480156104ce57602002820191906000526020600020905b8154815260200190600101908083116104ba575b5050505050905090565b600080548060010182816104ec9190610718565b9160005260206000209001600033909190916101000a81548173ffffffffffffffffffffffffffffffffffffffff021916908373ffffffffffffffffffffffffffffffffffffffff160217905550506001805480600101828161054f9190610744565b91600052602060002090016000349091909150555033600360006101000a81548173ffffffffffffffffffffffffffffffffffffffff021916908373ffffffffffffffffffffffffffffffffffffffff160217905550565b6105af610770565b600080548060200260200160405190810160405280929190818152602001828054801561063157602002820191906000526020600020905b8160009054906101000a900473ffffffffffffffffffffffffffffffffffffffff1673ffffffffffffffffffffffffffffffffffffffff16815260200190600101908083116105e7575b5050505050905090565b60008181548110151561064a57fe5b90600052602060002090016000915054906101000a900473ffffffffffffffffffffffffffffffffffffffff1681565b8280548282559060005260206000209081019282156106f3579160200282015b828111156106f25782518260006101000a81548173ffffffffffffffffffffffffffffffffffffffff021916908373ffffffffffffffffffffffffffffffffffffffff1602179055509160200191906001019061069a565b5b5090506107009190610784565b5090565b602060405190810160405280600081525090565b81548183558181151161073f5781836000526020600020918201910161073e91906107c7565b5b505050565b81548183558181151161076b5781836000526020600020918201910161076a91906107c7565b5b505050565b602060405190810160405280600081525090565b6107c491905b808211156107c057600081816101000a81549073ffffffffffffffffffffffffffffffffffffffff02191690555060010161078a565b5090565b90565b6107e991905b808211156107e55760008160009055506001016107cd565b5090565b905600a165627a7a723058202d4d667176e7648315d3d7107e59cebccf80b1e52e6457f76af3666e6c86c7300029",
  "source": "pragma solidity  ^0.4.19;\n\ncontract Auction {\n  //  Represents a set of people entering the auction to bid on a product.\n  address[] public bidders;\n  \n  // Represents the bids received by the seller.\n  uint256[] public bids;\n  \n  // Represents an address auctioning a product.\n  address public seller;\n  \n  // The highest bidder for the auction.\n  address highestBidder;\n  \n  function auction() public {\n      seller = msg.sender;\n  }\n\n  function submitBid() public payable {        \n        // initializing bidders & bids.\n        bidders.push(msg.sender);\n        bids.push(msg.value);\n        \n        //initializing highestBidder\n        highestBidder = msg.sender;\n  }\n  \n  function determineWinner() public {\n        \n        bidders[bidders.length-1].transfer(\n            bids[bids.length -1]);\n        \n        // Reset to a new round of auction.\n        bidders = new address[](0);\n    }\n  \n  function getHighestBidder() view public returns (address) {\n    return highestBidder;\n  }\n  \n  function getBidders() view public returns (address[]){\n      return bidders;\n  }\n  \n  function getBids() view public returns (uint256[]) {\n      return bids;\n  }\n}\n",
  "sourcePath": "/Users/jenilthakker/Desktop/Coding/auction-dapp/truffle/contracts/auction.sol",
  "compiler": {
    "name": "solc",
    "version": "0.4.19+commit.c4cbbb05.Emscripten.clang"
  },
  "schemaVersion": "3.0.11",
  "updatedAt": "2019-09-01T01:09:02.936Z",
  "devdoc": {
    "methods": {}
  },
  "userdoc": {
    "methods": {}
  }
}