{
  "contractName": "Auction",
  "abi": [
    {
      "constant": true,
      "inputs": [],
      "name": "seller",
      "outputs": [
        {
          "name": "",
          "type": "address"
        }
      ],
      "payable": false,
      "stateMutability": "view",
      "type": "function"
    },
    {
      "constant": true,
      "inputs": [
        {
          "name": "",
          "type": "uint256"
        }
      ],
      "name": "bids",
      "outputs": [
        {
          "name": "",
          "type": "uint256"
        }
      ],
      "payable": false,
      "stateMutability": "view",
      "type": "function"
    },
    {
      "constant": true,
      "inputs": [
        {
          "name": "",
          "type": "uint256"
        }
      ],
      "name": "bidders",
      "outputs": [
        {
          "name": "",
          "type": "address"
        }
      ],
      "payable": false,
      "stateMutability": "view",
      "type": "function"
    },
    {
      "constant": false,
      "inputs": [],
      "name": "auction",
      "outputs": [],
      "payable": false,
      "stateMutability": "nonpayable",
      "type": "function"
    },
    {
      "constant": false,
      "inputs": [],
      "name": "submitBid",
      "outputs": [],
      "payable": true,
      "stateMutability": "payable",
      "type": "function"
    },
    {
      "constant": false,
      "inputs": [],
      "name": "determineWinner",
      "outputs": [],
      "payable": false,
      "stateMutability": "nonpayable",
      "type": "function"
    },
    {
      "constant": true,
      "inputs": [],
      "name": "getHighestBidder",
      "outputs": [
        {
          "name": "",
          "type": "address"
        }
      ],
      "payable": false,
      "stateMutability": "view",
      "type": "function"
    },
    {
      "constant": true,
      "inputs": [],
      "name": "getBidders",
      "outputs": [
        {
          "name": "",
          "type": "address[]"
        }
      ],
      "payable": false,
      "stateMutability": "view",
      "type": "function"
    },
    {
      "constant": true,
      "inputs": [],
      "name": "getBids",
      "outputs": [
        {
          "name": "",
          "type": "uint256[]"
        }
      ],
      "payable": false,
      "stateMutability": "view",
      "type": "function"
    }
  ],
  "bytecode": "0x6060604052341561000f57600080fd5b61087a8061001e6000396000f300606060405260043610610098576000357c0100000000000000000000000000000000000000000000000000000000900463ffffffff1680623495a41461009d57806308551a53146100f257806333b16d93146101475780634423c5f11461015c5780637d9f6db514610193578063b81c78ec146101a8578063c334b6b214610212578063cb6632ef1461021c578063cff29dfd14610286575b600080fd5b34156100a857600080fd5b6100b06102e9565b604051808273ffffffffffffffffffffffffffffffffffffffff1673ffffffffffffffffffffffffffffffffffffffff16815260200191505060405180910390f35b34156100fd57600080fd5b610105610313565b604051808273ffffffffffffffffffffffffffffffffffffffff1673ffffffffffffffffffffffffffffffffffffffff16815260200191505060405180910390f35b341561015257600080fd5b61015a610339565b005b341561016757600080fd5b61017d60048080359060200190919050506104b6565b6040518082815260200191505060405180910390f35b341561019e57600080fd5b6101a66104da565b005b34156101b357600080fd5b6101bb61051d565b6040518080602001828103825283818151815260200191508051906020019060200280838360005b838110156101fe5780820151818401526020810190506101e3565b505050509050019250505060405180910390f35b61021a61057b565b005b341561022757600080fd5b61022f610609565b6040518080602001828103825283818151815260200191508051906020019060200280838360005b83811015610272578082015181840152602081019050610257565b505050509050019250505060405180910390f35b341561029157600080fd5b6102a7600480803590602001909190505061069d565b604051808273ffffffffffffffffffffffffffffffffffffffff1673ffffffffffffffffffffffffffffffffffffffff16815260200191505060405180910390f35b6000600360009054906101000a900473ffffffffffffffffffffffffffffffffffffffff16905090565b600260009054906101000a900473ffffffffffffffffffffffffffffffffffffffff1681565b60008060009150600090505b60018054905081101561039f578160018281548110151561036257fe5b90600052602060002090015411156103925760018181548110151561038357fe5b90600052602060002090015491505b8080600101915050610345565b6000818154811015156103ae57fe5b906000526020600020900160009054906101000a900473ffffffffffffffffffffffffffffffffffffffff16600360006101000a81548173ffffffffffffffffffffffffffffffffffffffff021916908373ffffffffffffffffffffffffffffffffffffffff160217905550600360009054906101000a900473ffffffffffffffffffffffffffffffffffffffff1673ffffffffffffffffffffffffffffffffffffffff166108fc839081150290604051600060405180830381858888f19350505050151561047c57600080fd5b600060405180591061048b5750595b9080825280602002602001820160405250600090805190602001906104b19291906106dc565b505050565b6001818154811015156104c557fe5b90600052602060002090016000915090505481565b33600260006101000a81548173ffffffffffffffffffffffffffffffffffffffff021916908373ffffffffffffffffffffffffffffffffffffffff160217905550565b610525610766565b600180548060200260200160405190810160405280929190818152602001828054801561057157602002820191906000526020600020905b81548152602001906001019080831161055d575b5050505050905090565b6000805480600101828161058f919061077a565b9160005260206000209001600033909190916101000a81548173ffffffffffffffffffffffffffffffffffffffff021916908373ffffffffffffffffffffffffffffffffffffffff16021790555050600180548060010182816105f291906107a6565b916000526020600020900160003490919091505550565b6106116107d2565b600080548060200260200160405190810160405280929190818152602001828054801561069357602002820191906000526020600020905b8160009054906101000a900473ffffffffffffffffffffffffffffffffffffffff1673ffffffffffffffffffffffffffffffffffffffff1681526020019060010190808311610649575b5050505050905090565b6000818154811015156106ac57fe5b90600052602060002090016000915054906101000a900473ffffffffffffffffffffffffffffffffffffffff1681565b828054828255906000526020600020908101928215610755579160200282015b828111156107545782518260006101000a81548173ffffffffffffffffffffffffffffffffffffffff021916908373ffffffffffffffffffffffffffffffffffffffff160217905550916020019190600101906106fc565b5b50905061076291906107e6565b5090565b602060405190810160405280600081525090565b8154818355818115116107a1578183600052602060002091820191016107a09190610829565b5b505050565b8154818355818115116107cd578183600052602060002091820191016107cc9190610829565b5b505050565b602060405190810160405280600081525090565b61082691905b8082111561082257600081816101000a81549073ffffffffffffffffffffffffffffffffffffffff0219169055506001016107ec565b5090565b90565b61084b91905b8082111561084757600081600090555060010161082f565b5090565b905600a165627a7a72305820dda34f9d9c943d6f2ddee83ad489dcb20437e45130ecd5fad54993ce5a3cc6eb0029",
  "source": "pragma solidity  ^0.4.19;\n\ncontract Auction {\n  //  Represents a set of people entering the auction to bid on a product.\n  address[] public bidders;\n  \n  // Represents the bids received by the seller.\n  uint256[] public bids;\n  \n  // Represents an address auctioning a product.\n  address public seller;\n  \n  // The highest bidder for the auction.\n  address highestBidder;\n\n  function auction() public {\n      seller = msg.sender;\n  }\n\n  function submitBid() public payable {        \n        // initializing bidders & bids.\n        bidders.push(msg.sender);\n        bids.push(msg.value);\n  }\n    \n\n  function determineWinner() public {\n    uint256 highestBid = 0;\n    uint256 i;\n\n    for (i = 0; i < bids.length; i++) {\n        if (bids[i] > highestBid) {\n            highestBid = bids[i];\n    }\n  }\n  \n   highestBidder = bidders[i];\n   highestBidder.transfer(highestBid);\n   \n   // Reset: for a new auction round.\n   bidders = new address[](0);\n }\n\n  function getHighestBidder() view public returns (address) {\n    return highestBidder;\n  }\n  \n  function getBidders() view public returns (address[]){\n      return bidders;\n  }\n  \n  function getBids() view public returns (uint256[]) {\n      return bids;\n  }\n}\n",
  "sourcePath": "/Users/jenilthakker/Desktop/Coding/auction-dapp/truffle/contracts/auction.sol",
  "compiler": {
    "name": "solc",
    "version": "0.4.19+commit.c4cbbb05.Emscripten.clang"
  },
  "schemaVersion": "3.0.11",
  "updatedAt": "2019-08-03T20:07:03.517Z",
  "devdoc": {
    "methods": {}
  },
  "userdoc": {
    "methods": {}
  }
}